{
  "abi": [
    {
      "type": "function",
      "name": "completeTask",
      "inputs": [
        {
          "name": "_id",
          "type": "uint256",
          "internalType": "uint256"
        }
      ],
      "outputs": [],
      "stateMutability": "nonpayable"
    },
    {
      "type": "function",
      "name": "createTask",
      "inputs": [
        {
          "name": "_title",
          "type": "string",
          "internalType": "string"
        },
        {
          "name": "_description",
          "type": "string",
          "internalType": "string"
        },
        {
          "name": "_dueDate",
          "type": "uint256",
          "internalType": "uint256"
        }
      ],
      "outputs": [],
      "stateMutability": "nonpayable"
    },
    {
      "type": "function",
      "name": "getTasks",
      "inputs": [
        {
          "name": "_id",
          "type": "uint256",
          "internalType": "uint256"
        }
      ],
      "outputs": [
        {
          "name": "",
          "type": "tuple",
          "internalType": "struct TaskManager.Task",
          "components": [
            {
              "name": "completedAt",
              "type": "uint256",
              "internalType": "uint256"
            },
            {
              "name": "createdAt",
              "type": "uint256",
              "internalType": "uint256"
            },
            {
              "name": "dueDate",
              "type": "uint256",
              "internalType": "uint256"
            },
            {
              "name": "id",
              "type": "uint256",
              "internalType": "uint256"
            },
            {
              "name": "completed",
              "type": "bool",
              "internalType": "bool"
            },
            {
              "name": "owner",
              "type": "address",
              "internalType": "address"
            },
            {
              "name": "title",
              "type": "string",
              "internalType": "string"
            },
            {
              "name": "description",
              "type": "string",
              "internalType": "string"
            }
          ]
        }
      ],
      "stateMutability": "view"
    },
    {
      "type": "event",
      "name": "TaskCreated",
      "inputs": [
        {
          "name": "id",
          "type": "uint256",
          "indexed": false,
          "internalType": "uint256"
        },
        {
          "name": "title",
          "type": "string",
          "indexed": false,
          "internalType": "string"
        },
        {
          "name": "description",
          "type": "string",
          "indexed": false,
          "internalType": "string"
        },
        {
          "name": "dueDate",
          "type": "uint256",
          "indexed": false,
          "internalType": "uint256"
        },
        {
          "name": "completed",
          "type": "bool",
          "indexed": false,
          "internalType": "bool"
        },
        {
          "name": "owner",
          "type": "address",
          "indexed": false,
          "internalType": "address"
        }
      ],
      "anonymous": false
    },
    {
      "type": "error",
      "name": "AlreadyCompleted",
      "inputs": []
    },
    {
      "type": "error",
      "name": "Unauthorized",
      "inputs": []
    }
  ],
  "bytecode": {
    "object": "0x6080604052348015600e575f5ffd5b50610d8e8061001c5f395ff3fe608060405234801561000f575f5ffd5b506004361061003f575f3560e01c806341a4e30a14610043578063cf8f4be21461005f578063e1e295581461008f575b5f5ffd5b61005d6004803603810190610058919061072e565b6100ab565b005b610079600480360381019061007491906107b6565b610245565b604051610086919061095d565b60405180910390f35b6100a960048036038101906100a491906107b6565b610436565b005b5f6040518061010001604052805f81526020014281526020018381526020015f8054905081526020015f151581526020013373ffffffffffffffffffffffffffffffffffffffff1681526020018581526020018481525090505f81908060018154018082558091505060019003905f5260205f2090600702015f909190919091505f820151815f01556020820151816001015560408201518160020155606082015181600301556080820151816004015f6101000a81548160ff02191690831515021790555060a08201518160040160016101000a81548173ffffffffffffffffffffffffffffffffffffffff021916908373ffffffffffffffffffffffffffffffffffffffff16021790555060c08201518160050190816101cd9190610b7a565b5060e08201518160060190816101e39190610b7a565b5050507fc1ca20ef3fa78e19d77cc26931998a7ae14f3a99a862d16e41281da1a06e29e581606001518260c001518360e00151846040015185608001518660a0015160405161023796959493929190610cbe565b60405180910390a150505050565b61024d610557565b5f82815481106102605761025f610d2b565b5b905f5260205f209060070201604051806101000160405290815f8201548152602001600182015481526020016002820154815260200160038201548152602001600482015f9054906101000a900460ff161515151581526020016004820160019054906101000a900473ffffffffffffffffffffffffffffffffffffffff1673ffffffffffffffffffffffffffffffffffffffff1673ffffffffffffffffffffffffffffffffffffffff16815260200160058201805461031f906109aa565b80601f016020809104026020016040519081016040528092919081815260200182805461034b906109aa565b80156103965780601f1061036d57610100808354040283529160200191610396565b820191905f5260205f20905b81548152906001019060200180831161037957829003601f168201915b505050505081526020016006820180546103af906109aa565b80601f01602080910402602001604051908101604052809291908181526020018280546103db906109aa565b80156104265780601f106103fd57610100808354040283529160200191610426565b820191905f5260205f20905b81548152906001019060200180831161040957829003601f168201915b5050505050815250509050919050565b5f5f828154811061044a57610449610d2b565b5b905f5260205f20906007020190503373ffffffffffffffffffffffffffffffffffffffff168160040160019054906101000a900473ffffffffffffffffffffffffffffffffffffffff1673ffffffffffffffffffffffffffffffffffffffff16146104e1576040517f82b4290000000000000000000000000000000000000000000000000000000000815260040160405180910390fd5b60011515816004015f9054906101000a900460ff1615150361052f576040517f195332a500000000000000000000000000000000000000000000000000000000815260040160405180910390fd5b6001816004015f6101000a81548160ff02191690831515021790555042815f01819055505050565b6040518061010001604052805f81526020015f81526020015f81526020015f81526020015f151581526020015f73ffffffffffffffffffffffffffffffffffffffff16815260200160608152602001606081525090565b5f604051905090565b5f5ffd5b5f5ffd5b5f5ffd5b5f5ffd5b5f601f19601f8301169050919050565b7f4e487b71000000000000000000000000000000000000000000000000000000005f52604160045260245ffd5b61060d826105c7565b810181811067ffffffffffffffff8211171561062c5761062b6105d7565b5b80604052505050565b5f61063e6105ae565b905061064a8282610604565b919050565b5f67ffffffffffffffff821115610669576106686105d7565b5b610672826105c7565b9050602081019050919050565b828183375f83830152505050565b5f61069f61069a8461064f565b610635565b9050828152602081018484840111156106bb576106ba6105c3565b5b6106c684828561067f565b509392505050565b5f82601f8301126106e2576106e16105bf565b5b81356106f284826020860161068d565b91505092915050565b5f819050919050565b61070d816106fb565b8114610717575f5ffd5b50565b5f8135905061072881610704565b92915050565b5f5f5f60608486031215610745576107446105b7565b5b5f84013567ffffffffffffffff811115610762576107616105bb565b5b61076e868287016106ce565b935050602084013567ffffffffffffffff81111561078f5761078e6105bb565b5b61079b868287016106ce565b92505060406107ac8682870161071a565b9150509250925092565b5f602082840312156107cb576107ca6105b7565b5b5f6107d88482850161071a565b91505092915050565b6107ea816106fb565b82525050565b5f8115159050919050565b610804816107f0565b82525050565b5f73ffffffffffffffffffffffffffffffffffffffff82169050919050565b5f6108338261080a565b9050919050565b61084381610829565b82525050565b5f81519050919050565b5f82825260208201905092915050565b8281835e5f83830152505050565b5f61087b82610849565b6108858185610853565b9350610895818560208601610863565b61089e816105c7565b840191505092915050565b5f61010083015f8301516108bf5f8601826107e1565b5060208301516108d260208601826107e1565b5060408301516108e560408601826107e1565b5060608301516108f860608601826107e1565b50608083015161090b60808601826107fb565b5060a083015161091e60a086018261083a565b5060c083015184820360c08601526109368282610871565b91505060e083015184820360e08601526109508282610871565b9150508091505092915050565b5f6020820190508181035f83015261097581846108a9565b905092915050565b7f4e487b71000000000000000000000000000000000000000000000000000000005f52602260045260245ffd5b5f60028204905060018216806109c157607f821691505b6020821081036109d4576109d361097d565b5b50919050565b5f819050815f5260205f209050919050565b5f6020601f8301049050919050565b5f82821b905092915050565b5f60088302610a367fffffffffffffffffffffffffffffffffffffffffffffffffffffffffffffffff826109fb565b610a4086836109fb565b95508019841693508086168417925050509392505050565b5f819050919050565b5f610a7b610a76610a71846106fb565b610a58565b6106fb565b9050919050565b5f819050919050565b610a9483610a61565b610aa8610aa082610a82565b848454610a07565b825550505050565b5f5f905090565b610abf610ab0565b610aca818484610a8b565b505050565b5b81811015610aed57610ae25f82610ab7565b600181019050610ad0565b5050565b601f821115610b3257610b03816109da565b610b0c846109ec565b81016020851015610b1b578190505b610b2f610b27856109ec565b830182610acf565b50505b505050565b5f82821c905092915050565b5f610b525f1984600802610b37565b1980831691505092915050565b5f610b6a8383610b43565b9150826002028217905092915050565b610b8382610849565b67ffffffffffffffff811115610b9c57610b9b6105d7565b5b610ba682546109aa565b610bb1828285610af1565b5f60209050601f831160018114610be2575f8415610bd0578287015190505b610bda8582610b5f565b865550610c41565b601f198416610bf0866109da565b5f5b82811015610c1757848901518255600182019150602085019450602081019050610bf2565b86831015610c345784890151610c30601f891682610b43565b8355505b6001600288020188555050505b505050505050565b610c52816106fb565b82525050565b5f82825260208201905092915050565b5f610c7282610849565b610c7c8185610c58565b9350610c8c818560208601610863565b610c95816105c7565b840191505092915050565b610ca9816107f0565b82525050565b610cb881610829565b82525050565b5f60c082019050610cd15f830189610c49565b8181036020830152610ce38188610c68565b90508181036040830152610cf78187610c68565b9050610d066060830186610c49565b610d136080830185610ca0565b610d2060a0830184610caf565b979650505050505050565b7f4e487b71000000000000000000000000000000000000000000000000000000005f52603260045260245ffdfea2646970667358221220e10dadc651ff15b89d7b7a59c0104804e569eae024e240c80a6b4c1cc050156264736f6c634300081c0033",
    "linkReferences": {}
  },
  "methodIdentifiers": {
    "completeTask(uint256)": "e1e29558",
    "createTask(string,string,uint256)": "41a4e30a",
    "getTasks(uint256)": "cf8f4be2"
  },
  "id": 16
}