{"abi":[{"type":"function","name":"completeTask","inputs":[{"name":"_taskId","type":"uint256","internalType":"uint256"}],"outputs":[],"stateMutability":"nonpayable"},{"type":"function","name":"createTask","inputs":[{"name":"_title","type":"string","internalType":"string"},{"name":"_description","type":"string","internalType":"string"},{"name":"_dueDate","type":"uint256","internalType":"uint256"},{"name":"_priority","type":"uint256","internalType":"uint256"},{"name":"_isCompleted","type":"bool","internalType":"bool"}],"outputs":[],"stateMutability":"payable"},{"type":"function","name":"getTask","inputs":[{"name":"_taskId","type":"uint256","internalType":"uint256"}],"outputs":[{"name":"","type":"string","internalType":"string"},{"name":"","type":"string","internalType":"string"},{"name":"","type":"uint256","internalType":"uint256"},{"name":"","type":"uint256","internalType":"uint256"},{"name":"","type":"bool","internalType":"bool"},{"name":"","type":"address","internalType":"address"}],"stateMutability":"view"},{"type":"function","name":"getTaskCount","inputs":[],"outputs":[{"name":"","type":"uint256","internalType":"uint256"}],"stateMutability":"view"},{"type":"function","name":"priorityLevels","inputs":[{"name":"","type":"uint256","internalType":"uint256"}],"outputs":[{"name":"","type":"uint256","internalType":"uint256"}],"stateMutability":"view"},{"type":"function","name":"taskToAmount","inputs":[{"name":"","type":"uint256","internalType":"uint256"}],"outputs":[{"name":"","type":"uint256","internalType":"uint256"}],"stateMutability":"view"},{"type":"function","name":"tasks","inputs":[{"name":"","type":"uint256","internalType":"uint256"}],"outputs":[{"name":"title","type":"string","internalType":"string"},{"name":"description","type":"string","internalType":"string"},{"name":"dueDate","type":"uint256","internalType":"uint256"},{"name":"priority","type":"uint256","internalType":"uint256"},{"name":"isCompleted","type":"bool","internalType":"bool"},{"name":"owner","type":"address","internalType":"address"}],"stateMutability":"view"},{"type":"event","name":"TaskCompleted","inputs":[{"name":"taskId","type":"uint256","indexed":false,"internalType":"uint256"},{"name":"owner","type":"address","indexed":false,"internalType":"address"},{"name":"amount","type":"uint256","indexed":false,"internalType":"uint256"}],"anonymous":false},{"type":"event","name":"TaskCreated","inputs":[{"name":"taskId","type":"uint256","indexed":false,"internalType":"uint256"},{"name":"title","type":"string","indexed":false,"internalType":"string"},{"name":"description","type":"string","indexed":false,"internalType":"string"},{"name":"dueDate","type":"uint256","indexed":false,"internalType":"uint256"},{"name":"priority","type":"uint256","indexed":false,"internalType":"uint256"},{"name":"isCompleted","type":"bool","indexed":false,"internalType":"bool"},{"name":"owner","type":"address","indexed":false,"internalType":"address"}],"anonymous":false}],"bytecode":{"object":"0x60806040526040518060800160405280620186a062ffffff16815260200161c35062ffffff16815260200161271062ffffff1681526020016103e862ffffff16815250600290600460509291906060565b50348015605b575f5ffd5b5060bb565b82600481019282156093579160200282015b828111156092578251829062ffffff169055916020019190600101906072565b5b509050609e919060a2565b5090565b5b8082111560b7575f815f90555060010160a3565b5090565b61160e806100c85f395ff3fe60806040526004361061006f575f3560e01c80638d9776721161004d5780638d9776721461010c578063c17a340e1461014d578063e1e2955814610177578063ff02d78b1461019f5761006f565b80630421ca44146100735780631d65e77e146100af57806354b85b5b146100f0575b5f5ffd5b34801561007e575f5ffd5b5061009960048036038101906100949190610b51565b6101db565b6040516100a69190610b8b565b60405180910390f35b3480156100ba575f5ffd5b506100d560048036038101906100d09190610b51565b6101f0565b6040516100e796959493929190610c6d565b60405180910390f35b61010a60048036038101906101059190610e30565b61041b565b005b348015610117575f5ffd5b50610132600480360381019061012d9190610b51565b610677565b60405161014496959493929190610c6d565b60405180910390f35b348015610158575f5ffd5b506101616107f5565b60405161016e9190610b8b565b60405180910390f35b348015610182575f5ffd5b5061019d60048036038101906101989190610b51565b610800565b005b3480156101aa575f5ffd5b506101c560048036038101906101c09190610b51565b610af4565b6040516101d29190610b8b565b60405180910390f35b6001602052805f5260405f205f915090505481565b6060805f5f5f5f5f878154811061020a57610209610edf565b5b905f5260205f2090600502015f015f888154811061022b5761022a610edf565b5b905f5260205f2090600502016001015f898154811061024d5761024c610edf565b5b905f5260205f209060050201600201545f8a815481106102705761026f610edf565b5b905f5260205f209060050201600301545f8b8154811061029357610292610edf565b5b905f5260205f2090600502016004015f9054906101000a900460ff165f8c815481106102c2576102c1610edf565b5b905f5260205f20906005020160040160019054906101000a900473ffffffffffffffffffffffffffffffffffffffff168580546102fe90610f39565b80601f016020809104026020016040519081016040528092919081815260200182805461032a90610f39565b80156103755780601f1061034c57610100808354040283529160200191610375565b820191905f5260205f20905b81548152906001019060200180831161035857829003601f168201915b5050505050955084805461038890610f39565b80601f01602080910402602001604051908101604052809291908181526020018280546103b490610f39565b80156103ff5780601f106103d6576101008083540402835291602001916103ff565b820191905f5260205f20905b8154815290600101906020018083116103e257829003601f168201915b5050505050945095509550955095509550955091939550919395565b42831161045d576040517f08c379a000000000000000000000000000000000000000000000000000000000815260040161045490610fb3565b60405180910390fd5b600482106104a0576040517f08c379a00000000000000000000000000000000000000000000000000000000081526004016104979061101b565b60405180910390fd5b5f600283600481106104b5576104b4610edf565b5b015490508034146104fb576040517f08c379a00000000000000000000000000000000000000000000000000000000081526004016104f290611083565b60405180910390fd5b5f5f8054905090508160015f8381526020019081526020015f20819055505f6040518060c0016040528089815260200188815260200187815260200186815260200185151581526020013373ffffffffffffffffffffffffffffffffffffffff16815250908060018154018082558091505060019003905f5260205f2090600502015f909190919091505f820151815f0190816105989190611241565b5060208201518160010190816105ae9190611241565b5060408201518160020155606082015181600301556080820151816004015f6101000a81548160ff02191690831515021790555060a08201518160040160016101000a81548173ffffffffffffffffffffffffffffffffffffffff021916908373ffffffffffffffffffffffffffffffffffffffff16021790555050507fdf85b8dff9054f1bd7812f2c4f75fcdb3fc5690dc749387169a1f0769023cb50818888888888336040516106669796959493929190611310565b60405180910390a150505050505050565b5f8181548110610685575f80fd5b905f5260205f2090600502015f91509050805f0180546106a490610f39565b80601f01602080910402602001604051908101604052809291908181526020018280546106d090610f39565b801561071b5780601f106106f25761010080835404028352916020019161071b565b820191905f5260205f20905b8154815290600101906020018083116106fe57829003601f168201915b50505050509080600101805461073090610f39565b80601f016020809104026020016040519081016040528092919081815260200182805461075c90610f39565b80156107a75780601f1061077e576101008083540402835291602001916107a7565b820191905f5260205f20905b81548152906001019060200180831161078a57829003601f168201915b505050505090806002015490806003015490806004015f9054906101000a900460ff16908060040160019054906101000a900473ffffffffffffffffffffffffffffffffffffffff16905086565b5f5f80549050905090565b5f805490508110610846576040517f08c379a000000000000000000000000000000000000000000000000000000000815260040161083d906113d5565b60405180910390fd5b5f818154811061085957610858610edf565b5b905f5260205f2090600502016004015f9054906101000a900460ff16156108b5576040517f08c379a00000000000000000000000000000000000000000000000000000000081526004016108ac9061143d565b60405180910390fd5b5f81815481106108c8576108c7610edf565b5b905f5260205f2090600502016002015442111561091a576040517f08c379a0000000000000000000000000000000000000000000000000000000008152600401610911906114a5565b60405180910390fd5b3373ffffffffffffffffffffffffffffffffffffffff165f828154811061094457610943610edf565b5b905f5260205f20906005020160040160019054906101000a900473ffffffffffffffffffffffffffffffffffffffff1673ffffffffffffffffffffffffffffffffffffffff16146109ca576040517f08c379a00000000000000000000000000000000000000000000000000000000081526004016109c190611533565b60405180910390fd5b60015f82815481106109df576109de610edf565b5b905f5260205f2090600502016004015f6101000a81548160ff0219169083151502179055505f60015f8381526020019081526020015f205490505f5f8381548110610a2d57610a2c610edf565b5b905f5260205f20906005020160040160019054906101000a900473ffffffffffffffffffffffffffffffffffffffff1690508073ffffffffffffffffffffffffffffffffffffffff166108fc8390811502906040515f60405180830381858888f19350505050158015610aa2573d5f5f3e3d5ffd5b507f843af93d40addceac6932508439844b897d4df9e971db326d557e3cdaa9f3ebf838260015f8781526020019081526020015f2054604051610ae7939291906115a3565b60405180910390a1505050565b60028160048110610b03575f80fd5b015f915090505481565b5f604051905090565b5f5ffd5b5f5ffd5b5f819050919050565b610b3081610b1e565b8114610b3a575f5ffd5b50565b5f81359050610b4b81610b27565b92915050565b5f60208284031215610b6657610b65610b16565b5b5f610b7384828501610b3d565b91505092915050565b610b8581610b1e565b82525050565b5f602082019050610b9e5f830184610b7c565b92915050565b5f81519050919050565b5f82825260208201905092915050565b8281835e5f83830152505050565b5f601f19601f8301169050919050565b5f610be682610ba4565b610bf08185610bae565b9350610c00818560208601610bbe565b610c0981610bcc565b840191505092915050565b5f8115159050919050565b610c2881610c14565b82525050565b5f73ffffffffffffffffffffffffffffffffffffffff82169050919050565b5f610c5782610c2e565b9050919050565b610c6781610c4d565b82525050565b5f60c0820190508181035f830152610c858189610bdc565b90508181036020830152610c998188610bdc565b9050610ca86040830187610b7c565b610cb56060830186610b7c565b610cc26080830185610c1f565b610ccf60a0830184610c5e565b979650505050505050565b5f5ffd5b5f5ffd5b7f4e487b71000000000000000000000000000000000000000000000000000000005f52604160045260245ffd5b610d1882610bcc565b810181811067ffffffffffffffff82111715610d3757610d36610ce2565b5b80604052505050565b5f610d49610b0d565b9050610d558282610d0f565b919050565b5f67ffffffffffffffff821115610d7457610d73610ce2565b5b610d7d82610bcc565b9050602081019050919050565b828183375f83830152505050565b5f610daa610da584610d5a565b610d40565b905082815260208101848484011115610dc657610dc5610cde565b5b610dd1848285610d8a565b509392505050565b5f82601f830112610ded57610dec610cda565b5b8135610dfd848260208601610d98565b91505092915050565b610e0f81610c14565b8114610e19575f5ffd5b50565b5f81359050610e2a81610e06565b92915050565b5f5f5f5f5f60a08688031215610e4957610e48610b16565b5b5f86013567ffffffffffffffff811115610e6657610e65610b1a565b5b610e7288828901610dd9565b955050602086013567ffffffffffffffff811115610e9357610e92610b1a565b5b610e9f88828901610dd9565b9450506040610eb088828901610b3d565b9350506060610ec188828901610b3d565b9250506080610ed288828901610e1c565b9150509295509295909350565b7f4e487b71000000000000000000000000000000000000000000000000000000005f52603260045260245ffd5b7f4e487b71000000000000000000000000000000000000000000000000000000005f52602260045260245ffd5b5f6002820490506001821680610f5057607f821691505b602082108103610f6357610f62610f0c565b5b50919050565b7f4475652064617465206d75737420626520696e207468652066757475726500005f82015250565b5f610f9d601e83610bae565b9150610fa882610f69565b602082019050919050565b5f6020820190508181035f830152610fca81610f91565b9050919050565b7f496e76616c6964207072696f72697479000000000000000000000000000000005f82015250565b5f611005601083610bae565b915061101082610fd1565b602082019050919050565b5f6020820190508181035f83015261103281610ff9565b9050919050565b7f496e76616c6964207061796d656e7420616d6f756e74000000000000000000005f82015250565b5f61106d601683610bae565b915061107882611039565b602082019050919050565b5f6020820190508181035f83015261109a81611061565b9050919050565b5f819050815f5260205f209050919050565b5f6020601f8301049050919050565b5f82821b905092915050565b5f600883026110fd7fffffffffffffffffffffffffffffffffffffffffffffffffffffffffffffffff826110c2565b61110786836110c2565b95508019841693508086168417925050509392505050565b5f819050919050565b5f61114261113d61113884610b1e565b61111f565b610b1e565b9050919050565b5f819050919050565b61115b83611128565b61116f61116782611149565b8484546110ce565b825550505050565b5f5f905090565b611186611177565b611191818484611152565b505050565b5b818110156111b4576111a95f8261117e565b600181019050611197565b5050565b601f8211156111f9576111ca816110a1565b6111d3846110b3565b810160208510156111e2578190505b6111f66111ee856110b3565b830182611196565b50505b505050565b5f82821c905092915050565b5f6112195f19846008026111fe565b1980831691505092915050565b5f611231838361120a565b9150826002028217905092915050565b61124a82610ba4565b67ffffffffffffffff81111561126357611262610ce2565b5b61126d8254610f39565b6112788282856111b8565b5f60209050601f8311600181146112a9575f8415611297578287015190505b6112a18582611226565b865550611308565b601f1984166112b7866110a1565b5f5b828110156112de578489015182556001820191506020850194506020810190506112b9565b868310156112fb57848901516112f7601f89168261120a565b8355505b6001600288020188555050505b505050505050565b5f60e0820190506113235f83018a610b7c565b81810360208301526113358189610bdc565b905081810360408301526113498188610bdc565b90506113586060830187610b7c565b6113656080830186610b7c565b61137260a0830185610c1f565b61137f60c0830184610c5e565b98975050505050505050565b7f496e76616c6964207461736b20494400000000000000000000000000000000005f82015250565b5f6113bf600f83610bae565b91506113ca8261138b565b602082019050919050565b5f6020820190508181035f8301526113ec816113b3565b9050919050565b7f5461736b20616c726561647920636f6d706c65746564000000000000000000005f82015250565b5f611427601683610bae565b9150611432826113f3565b602082019050919050565b5f6020820190508181035f8301526114548161141b565b9050919050565b7f5461736b206861732065787069726564000000000000000000000000000000005f82015250565b5f61148f601083610bae565b915061149a8261145b565b602082019050919050565b5f6020820190508181035f8301526114bc81611483565b9050919050565b7f596f7520617265206e6f7420746865206f776e6572206f6620746869732074615f8201527f736b000000000000000000000000000000000000000000000000000000000000602082015250565b5f61151d602283610bae565b9150611528826114c3565b604082019050919050565b5f6020820190508181035f83015261154a81611511565b9050919050565b5f61156b61156661156184610c2e565b61111f565b610c2e565b9050919050565b5f61157c82611551565b9050919050565b5f61158d82611572565b9050919050565b61159d81611583565b82525050565b5f6060820190506115b65f830186610b7c565b6115c36020830185611594565b6115d06040830184610b7c565b94935050505056fea2646970667358221220a667494f1a3b306b9db53615b609dcc3c7094bd221d3212dbb2dccf996d6844a64736f6c634300081e0033","linkReferences":{}},"methodIdentifiers":{"completeTask(uint256)":"e1e29558","createTask(string,string,uint256,uint256,bool)":"54b85b5b","getTask(uint256)":"1d65e77e","getTaskCount()":"c17a340e","priorityLevels(uint256)":"ff02d78b","taskToAmount(uint256)":"0421ca44","tasks(uint256)":"8d977672"},"id":21}